{
  "contractName": "Dex",
  "abi": [
    {
      "inputs": [],
      "payable": false,
      "stateMutability": "nonpayable",
      "type": "constructor"
    },
    {
      "constant": true,
      "inputs": [],
      "name": "admin",
      "outputs": [
        {
          "internalType": "address",
          "name": "",
          "type": "address"
        }
      ],
      "payable": false,
      "stateMutability": "view",
      "type": "function"
    },
    {
      "constant": true,
      "inputs": [],
      "name": "nextOrderID",
      "outputs": [
        {
          "internalType": "uint256",
          "name": "",
          "type": "uint256"
        }
      ],
      "payable": false,
      "stateMutability": "view",
      "type": "function"
    },
    {
      "constant": true,
      "inputs": [
        {
          "internalType": "bytes32",
          "name": "",
          "type": "bytes32"
        },
        {
          "internalType": "uint256",
          "name": "",
          "type": "uint256"
        },
        {
          "internalType": "uint256",
          "name": "",
          "type": "uint256"
        }
      ],
      "name": "orderBook",
      "outputs": [
        {
          "internalType": "uint256",
          "name": "id",
          "type": "uint256"
        },
        {
          "internalType": "enum Dex.Side",
          "name": "side",
          "type": "uint8"
        },
        {
          "internalType": "bytes32",
          "name": "ticker",
          "type": "bytes32"
        },
        {
          "internalType": "uint256",
          "name": "amount",
          "type": "uint256"
        },
        {
          "internalType": "uint256",
          "name": "filled",
          "type": "uint256"
        },
        {
          "internalType": "uint256",
          "name": "price",
          "type": "uint256"
        },
        {
          "internalType": "uint256",
          "name": "date",
          "type": "uint256"
        }
      ],
      "payable": false,
      "stateMutability": "view",
      "type": "function"
    },
    {
      "constant": true,
      "inputs": [
        {
          "internalType": "uint256",
          "name": "",
          "type": "uint256"
        }
      ],
      "name": "tokenList",
      "outputs": [
        {
          "internalType": "bytes32",
          "name": "",
          "type": "bytes32"
        }
      ],
      "payable": false,
      "stateMutability": "view",
      "type": "function"
    },
    {
      "constant": true,
      "inputs": [
        {
          "internalType": "bytes32",
          "name": "",
          "type": "bytes32"
        }
      ],
      "name": "tokens",
      "outputs": [
        {
          "internalType": "bytes32",
          "name": "ticker",
          "type": "bytes32"
        },
        {
          "internalType": "address",
          "name": "tokenAddress",
          "type": "address"
        }
      ],
      "payable": false,
      "stateMutability": "view",
      "type": "function"
    },
    {
      "constant": true,
      "inputs": [
        {
          "internalType": "address",
          "name": "",
          "type": "address"
        },
        {
          "internalType": "bytes32",
          "name": "",
          "type": "bytes32"
        }
      ],
      "name": "traderBalances",
      "outputs": [
        {
          "internalType": "uint256",
          "name": "",
          "type": "uint256"
        }
      ],
      "payable": false,
      "stateMutability": "view",
      "type": "function"
    },
    {
      "constant": false,
      "inputs": [
        {
          "internalType": "bytes32",
          "name": "ticker",
          "type": "bytes32"
        },
        {
          "internalType": "address",
          "name": "tokenAddress",
          "type": "address"
        }
      ],
      "name": "addToken",
      "outputs": [],
      "payable": false,
      "stateMutability": "nonpayable",
      "type": "function"
    },
    {
      "constant": false,
      "inputs": [
        {
          "internalType": "uint256",
          "name": "amount",
          "type": "uint256"
        },
        {
          "internalType": "bytes32",
          "name": "ticker",
          "type": "bytes32"
        }
      ],
      "name": "deposit",
      "outputs": [],
      "payable": false,
      "stateMutability": "nonpayable",
      "type": "function"
    },
    {
      "constant": false,
      "inputs": [
        {
          "internalType": "bytes32",
          "name": "ticker",
          "type": "bytes32"
        },
        {
          "internalType": "uint256",
          "name": "amount",
          "type": "uint256"
        },
        {
          "internalType": "uint256",
          "name": "price",
          "type": "uint256"
        },
        {
          "internalType": "enum Dex.Side",
          "name": "side",
          "type": "uint8"
        }
      ],
      "name": "createLimitOrder",
      "outputs": [],
      "payable": false,
      "stateMutability": "nonpayable",
      "type": "function"
    },
    {
      "constant": false,
      "inputs": [
        {
          "internalType": "uint256",
          "name": "amount",
          "type": "uint256"
        },
        {
          "internalType": "bytes32",
          "name": "ticker",
          "type": "bytes32"
        }
      ],
      "name": "withdraw",
      "outputs": [],
      "payable": false,
      "stateMutability": "nonpayable",
      "type": "function"
    }
  ],
  "bytecode": "0x608060405234801561001057600080fd5b5033600260006101000a81548173ffffffffffffffffffffffffffffffffffffffff021916908373ffffffffffffffffffffffffffffffffffffffff160217905550611378806100616000396000f3fe608060405234801561001057600080fd5b506004361061009e5760003560e01c8063a8d2021a11610066578063a8d2021a14610298578063c9630cb0146102d0578063d9c0c95014610308578063f47a0acc14610357578063f851a440146103755761009e565b80630bb431b6146100a357806372ce957e14610131578063904194a3146101935780639776aacf146102085780639ead722214610256575b600080fd5b6100e3600480360360608110156100b957600080fd5b810190808035906020019092919080359060200190929190803590602001909291905050506103bf565b604051808881526020018760018111156100f957fe5b60ff16815260200186815260200185815260200184815260200183815260200182815260200197505050505050505060405180910390f35b61017d6004803603604081101561014757600080fd5b81019080803573ffffffffffffffffffffffffffffffffffffffff16906020019092919080359060200190929190505050610435565b6040518082815260200191505060405180910390f35b6101bf600480360360208110156101a957600080fd5b810190808035906020019092919050505061045a565b604051808381526020018273ffffffffffffffffffffffffffffffffffffffff1673ffffffffffffffffffffffffffffffffffffffff1681526020019250505060405180910390f35b6102546004803603604081101561021e57600080fd5b8101908080359060200190929190803573ffffffffffffffffffffffffffffffffffffffff16906020019092919050505061049e565b005b6102826004803603602081101561026c57600080fd5b8101908080359060200190929190505050610622565b6040518082815260200191505060405180910390f35b6102ce600480360360408110156102ae57600080fd5b810190808035906020019092919080359060200190929190505050610643565b005b610306600480360360408110156102e657600080fd5b81019080803590602001909291908035906020019092919050505061093d565b005b6103556004803603608081101561031e57600080fd5b81019080803590602001909291908035906020019092919080359060200190929190803560ff169060200190929190505050610ba5565b005b61035f6112cc565b6040518082815260200191505060405180910390f35b61037d6112d2565b604051808273ffffffffffffffffffffffffffffffffffffffff1673ffffffffffffffffffffffffffffffffffffffff16815260200191505060405180910390f35b600360205282600052604060002060205281600052604060002081815481106103e457fe5b906000526020600020906007020160009250925050508060000154908060010160009054906101000a900460ff16908060020154908060030154908060040154908060050154908060060154905087565b6005602052816000526040600020602052806000526040600020600091509150505481565b60006020528060005260406000206000915090508060000154908060010160009054906101000a900473ffffffffffffffffffffffffffffffffffffffff16905082565b600260009054906101000a900473ffffffffffffffffffffffffffffffffffffffff1673ffffffffffffffffffffffffffffffffffffffff163373ffffffffffffffffffffffffffffffffffffffff1614610561576040517f08c379a000000000000000000000000000000000000000000000000000000000815260040180806020018281038252600a8152602001807f6f6e6c792061646d696e0000000000000000000000000000000000000000000081525060200191505060405180910390fd5b60405180604001604052808381526020018273ffffffffffffffffffffffffffffffffffffffff168152506000808481526020019081526020016000206000820151816000015560208201518160010160006101000a81548173ffffffffffffffffffffffffffffffffffffffff021916908373ffffffffffffffffffffffffffffffffffffffff16021790555090505060018290806001815401808255809150509060018203906000526020600020016000909192909190915055505050565b6001818154811061062f57fe5b906000526020600020016000915090505481565b80600073ffffffffffffffffffffffffffffffffffffffff1660008083815260200190815260200160002060010160009054906101000a900473ffffffffffffffffffffffffffffffffffffffff1673ffffffffffffffffffffffffffffffffffffffff16141561071c576040517f08c379a00000000000000000000000000000000000000000000000000000000081526004018080602001828103825260108152602001807f756e7375706f7274656420746f6b656e0000000000000000000000000000000081525060200191505060405180910390fd5b82600560003373ffffffffffffffffffffffffffffffffffffffff1673ffffffffffffffffffffffffffffffffffffffff16815260200190815260200160002060008481526020019081526020016000205410156107e2576040517f08c379a000000000000000000000000000000000000000000000000000000000815260040180806020018281038252600f8152602001807f62616c616e636520746f6f206c6f77000000000000000000000000000000000081525060200191505060405180910390fd5b82600560003373ffffffffffffffffffffffffffffffffffffffff1673ffffffffffffffffffffffffffffffffffffffff16815260200190815260200160002060008481526020019081526020016000206000828254039250508190555060008083815260200190815260200160002060010160009054906101000a900473ffffffffffffffffffffffffffffffffffffffff1673ffffffffffffffffffffffffffffffffffffffff1663a9059cbb33856040518363ffffffff1660e01b8152600401808373ffffffffffffffffffffffffffffffffffffffff1673ffffffffffffffffffffffffffffffffffffffff16815260200182815260200192505050602060405180830381600087803b1580156108fc57600080fd5b505af1158015610910573d6000803e3d6000fd5b505050506040513d602081101561092657600080fd5b810190808051906020019092919050505050505050565b80600073ffffffffffffffffffffffffffffffffffffffff1660008083815260200190815260200160002060010160009054906101000a900473ffffffffffffffffffffffffffffffffffffffff1673ffffffffffffffffffffffffffffffffffffffff161415610a16576040517f08c379a00000000000000000000000000000000000000000000000000000000081526004018080602001828103825260108152602001807f756e7375706f7274656420746f6b656e0000000000000000000000000000000081525060200191505060405180910390fd5b60008083815260200190815260200160002060010160009054906101000a900473ffffffffffffffffffffffffffffffffffffffff1673ffffffffffffffffffffffffffffffffffffffff166323b872dd3330866040518463ffffffff1660e01b8152600401808473ffffffffffffffffffffffffffffffffffffffff1673ffffffffffffffffffffffffffffffffffffffff1681526020018373ffffffffffffffffffffffffffffffffffffffff1673ffffffffffffffffffffffffffffffffffffffff1681526020018281526020019350505050602060405180830381600087803b158015610b0657600080fd5b505af1158015610b1a573d6000803e3d6000fd5b505050506040513d6020811015610b3057600080fd5b81019080805190602001909291905050505082600560003373ffffffffffffffffffffffffffffffffffffffff1673ffffffffffffffffffffffffffffffffffffffff168152602001908152602001600020600084815260200190815260200160002060008282540192505081905550505050565b83600073ffffffffffffffffffffffffffffffffffffffff1660008083815260200190815260200160002060010160009054906101000a900473ffffffffffffffffffffffffffffffffffffffff1673ffffffffffffffffffffffffffffffffffffffff161415610c7e576040517f08c379a00000000000000000000000000000000000000000000000000000000081526004018080602001828103825260108152602001807f756e7375706f7274656420746f6b656e0000000000000000000000000000000081525060200191505060405180910390fd5b7f4441490000000000000000000000000000000000000000000000000000000000851415610d14576040517f08c379a00000000000000000000000000000000000000000000000000000000081526004018080602001828103825260108152602001807f63616e6e6f74207472616465204441490000000000000000000000000000000081525060200191505060405180910390fd5b600180811115610d2057fe5b826001811115610d2c57fe5b1415610dfc5783600560003373ffffffffffffffffffffffffffffffffffffffff1673ffffffffffffffffffffffffffffffffffffffff16815260200190815260200160002060008781526020019081526020016000205411610df7576040517f08c379a00000000000000000000000000000000000000000000000000000000081526004018080602001828103825260158152602001807f746f6b656e2062616c616e636520746f6f206c6f77000000000000000000000081525060200191505060405180910390fd5b610ee5565b828402600560003373ffffffffffffffffffffffffffffffffffffffff1673ffffffffffffffffffffffffffffffffffffffff16815260200190815260200160002060007f44414900000000000000000000000000000000000000000000000000000000008152602001908152602001600020541015610ee4576040517f08c379a00000000000000000000000000000000000000000000000000000000081526004018080602001828103825260138152602001807f4441492062616c616e636520746f6f206c6f770000000000000000000000000081525060200191505060405180910390fd5b5b6000600360008781526020019081526020016000206000846001811115610f0857fe5b81526020019081526020016000209050806040518060e001604052806004548152602001856001811115610f3857fe5b81526020018881526020018781526020016000815260200186815260200142815250908060018154018082558091505090600182039060005260206000209060070201600090919290919091506000820151816000015560208201518160010160006101000a81548160ff02191690836001811115610fb357fe5b021790555060408201518160020155606082015181600301556080820151816004015560a0820151816005015560c082015181600601555050506000600182805490500390505b60008111156112b1576000600181111561101057fe5b84600181111561101c57fe5b148015611065575081818154811061103057fe5b90600052602060002090600702016005015482600183038154811061105157fe5b906000526020600020906007020160050154115b1561106f576112b1565b60018081111561107b57fe5b84600181111561108757fe5b1480156110ce575081818154811061109b57fe5b906000526020600020906007020160050154826000815481106110ba57fe5b906000526020600020906007020160050154105b156110d8576112b1565b6110e06112f8565b8260018303815481106110ef57fe5b90600052602060002090600702016040518060e0016040529081600082015481526020016001820160009054906101000a900460ff16600181111561113057fe5b600181111561113b57fe5b815260200160028201548152602001600382015481526020016004820154815260200160058201548152602001600682015481525050905082828154811061117f57fe5b906000526020600020906007020183600184038154811061119c57fe5b9060005260206000209060070201600082015481600001556001820160009054906101000a900460ff168160010160006101000a81548160ff021916908360018111156111e557fe5b021790555060028201548160020155600382015481600301556004820154816004015560058201548160050155600682015481600601559050508083838154811061122c57fe5b90600052602060002090600702016000820151816000015560208201518160010160006101000a81548160ff0219169083600181111561126857fe5b021790555060408201518160020155606082015181600301556080820151816004015560a0820151816005015560c0820151816006015590505081806001900392505050610ffa565b60046000815480929190600101919050555050505050505050565b60045481565b600260009054906101000a900473ffffffffffffffffffffffffffffffffffffffff1681565b6040518060e00160405280600081526020016000600181111561131757fe5b81526020016000801916815260200160008152602001600081526020016000815260200160008152509056fea265627a7a72315820239c028141e94e1deda2a8878e5603ec2f6eeb5672bda6986bff02245742873c64736f6c63430005110032",
  "source": "pragma solidity >=0.4.22 <0.8.0;\n\nimport \"@OpenZeppelin/contracts/token/ERC20/IERC20.sol\";\n\n/**\n  Featurs\n  1. Token registry: registers a list of supported tokens \n  2. Wallet: manages a wallet which tracks users ether\n\n  3. DAI integration; when you trade financial assets , you will always have a \n      base currency as well as a quote currency, the price of the base currency is \n      given in terms of the quote currency \n      eg the pair EUR/USD is 1.2 means you need to pay 1.2 USD to get 1 EUR where USD is the quote currency\n      in the past for most exchanges, the quote curency was ether, \n      however , Eth is very volatile , so its not ideal as a quote currency ,\n      instead we want to have something stable\n\n      DAi is ony available on the mainnet or public testnets ,\n      so to use DAI we will create a fake DAI\n  \n  4. Limit Order:\n     A limit order is a buy or sell order with a limit price \n     For a buy order , the limit will be a maximum price \n     For a sell order , the limit will be a minimum price \n\n  5. Order\n           \n      \n */\ncontract Dex {\n\n    enum Side {\n        BUY,\n        SELL\n    }\n\n    struct Order {\n        uint id;\n        Side side;\n        //ticker of token to buy or sell\n        bytes32 ticker;\n        uint amount;\n        //how much of the order was filled\n        //an order can be partiallt filled, \n        //forinstance if order amount is 100 at order \n        //creation, filled will be equal 0\n        //if a market oder matches this order for only \n        //50 , then filled will be 50, once flled \n        //becomes 100 by subsequent market orders \n        ///then the order will be complete\n        uint filled;\n        uint price;\n        uint date;\n    }\n    \n    struct Token {\n        //we use bytes32 because \n        //string are not easy to manipulate\n        bytes32 ticker;\n        address tokenAddress;\n    }\n\n    mapping(bytes32 => Token) public tokens;\n    bytes32[] public tokenList; \n    address public admin; \n    //order book. \n    //mapping of ticker to mapping of Side(buy or sell) to\n    // order array sorted by best price\n    mapping(bytes32 => mapping(uint => Order[])) public orderBook;\n    //tracks the next order\n    uint public nextOrderID;\n    //Wallet\n    mapping(address => mapping(bytes32 => uint)) public traderBalances;\n\n    constructor() public {\n        admin = msg.sender;\n    }\n\n    //registers supported token\n    function addToken(bytes32 ticker, address tokenAddress) onlyAdmin() external {\n\n         tokens[ticker] = Token(ticker, tokenAddress);\n         tokenList.push(ticker);\n    }\n\n    //deposit token \n    function deposit(uint amount, bytes32 ticker) tokenExists(ticker) external {\n       // approve THE DEX exchange to trade your tokens\n       //and transfer the amount of token to the exchange\n       //by calling the transferFrom method on the token\n       //this increases the traders tokens on the DEX \n       IERC20(tokens[ticker].tokenAddress).transferFrom(msg.sender, address(this), amount);\n\n       traderBalances[msg.sender][ticker] += amount;\n\n    }\n\n\n    function createLimitOrder(\n        bytes32 ticker,\n        uint amount,\n        uint price,\n        Side side\n        ) tokenExists(ticker) external{\n        //ensure the token is not DAI because DAI cannot be traded \n        //it is the quote currency \n        require(ticker != bytes32('DAI'),\"cannot trade DAI\");\n\n        //for sell order, ensure trader has enough tokens \n        if(side == Side.SELL) {\n            require(traderBalances[msg.sender][ticker] > amount, \"token balance too low\");\n        } else {\n            //else if it is a buy order, we need to make sure \n            //the trader has enough dai to buy the token \n            require(traderBalances[msg.sender][bytes32(\"DAI\")]>= amount * price, \"DAI balance too low\");\n        }\n\n        //add order\n        Order[] storage orders = orderBook[ticker][uint(side)]; \n\n        //we need to keep the orders with the best price at the start of the array\n        // we need this ranking because of the way we match incoming orders\n       //we will use bubble sort to order the orders\n        orders.push(Order(\n            nextOrderID,\n            side, \n            ticker,\n            amount, \n            0, //filled is initially 0,\n            price,\n            now //date\n        ));\n\n        uint i = orders.length - 1;\n        //for buy orders we want the\n        //highst prices at beginning \n        //for sell orders we want the contrary\n        //SORT ORDERS USING BUBBLE SORT\n        while(i > 0) {\n           if(side == Side.BUY && (orders[i - 1].price > orders[i].price)) {\n               break;\n           }\n           if(side == Side.SELL && (orders[1 - 1].price < orders[i].price)) {\n               break;\n           }\n\n           Order memory order = orders[i - 1];\n           orders[i - 1] = orders[i];\n           orders[i] = order;\n           i--;\n        }\n        nextOrderID++;\n\n    }\n    //allows trader to withdraw his tokens\n    function withdraw(uint amount, bytes32 ticker) tokenExists(ticker) external {\n\n        //ensure trader has balance >= amount\n        require(traderBalances[msg.sender][ticker] >= amount,'balance too low');\n\n        traderBalances[msg.sender][ticker] -= amount;\n        IERC20(tokens[ticker].tokenAddress).transfer(msg.sender, amount);\n    } \n\n    modifier onlyAdmin() {\n        require(msg.sender == admin, 'only admin');\n        _;\n    }\n\n    modifier tokenExists(bytes32 ticker) {\n        require(tokens[ticker].tokenAddress!=address(0), 'unsuported token');\n        _;\n    }\n\n    \n\n}",
  "sourcePath": "/Users/yusuf/Documents/Developer/workspaces/ethereum/eattheblocks/decentralized-exchange/contracts/Dex.sol",
  "compiler": {
    "name": "solc",
    "version": "0.5.17+commit.d19bba13.Emscripten.clang"
  },
  "schemaVersion": "3.3.2",
  "updatedAt": "2021-01-24T13:12:02.113Z",
  "devdoc": {
    "methods": {}
  },
  "userdoc": {
    "methods": {},
    "notice": "Featurs 1. Token registry: registers a list of supported tokens  2. Wallet: manages a wallet which tracks users ether 3. DAI integration; when you trade financial assets , you will always have a  base currency as well as a quote currency, the price of the base currency is  given in terms of the quote currency  eg the pair EUR/USD is 1.2 means you need to pay 1.2 USD to get 1 EUR where USD is the quote currency in the past for most exchanges, the quote curency was ether,  however , Eth is very volatile , so its not ideal as a quote currency , instead we want to have something stable DAi is ony available on the mainnet or public testnets , so to use DAI we will create a fake DAI 4. Limit Order: A limit order is a buy or sell order with a limit price  For a buy order , the limit will be a maximum price  For a sell order , the limit will be a minimum price  5. Order"
  }
}